{"bytecode":"608060405242600155655af3107a4000600255620186a060035534801561002557600080fd5b50604051610c1a380380610c1a833981016040819052610044916100c2565b61004d33610072565b600480546001600160a01b0319166001600160a01b03929092169190911790556100f2565b600080546001600160a01b038381166001600160a01b0319831681178455604051919092169283917f8be0079c531659141344cd1fd0a4f28419497f9722a3daafe3b4186f6b6457e09190a35050565b6000602082840312156100d457600080fd5b81516001600160a01b03811681146100eb57600080fd5b9392505050565b610b19806101016000396000f3fe6080604052600436106100c25760003560e01c80638da5cb5b1161007f578063e0f2b23b11610059578063e0f2b23b146101ca578063e62b7ea7146101d2578063f2fde38b146101e8578063fc0c546a1461020857600080fd5b80638da5cb5b1461016f578063c71daccb146101a1578063d8270dce146101b457600080fd5b80630bea440d146100c75780632397e4d7146100e95780632c4e722e146101095780632d296bf1146101325780634f73108714610145578063715018a61461015a575b600080fd5b3480156100d357600080fd5b506100e76100e23660046109dc565b610228565b005b3480156100f557600080fd5b506100e7610104366004610a08565b6102f9565b34801561011557600080fd5b5061011f60025481565b6040519081526020015b60405180910390f35b6100e7610140366004610a08565b6104f5565b34801561015157600080fd5b5061011f61069a565b34801561016657600080fd5b506100e7610711565b34801561017b57600080fd5b506000546001600160a01b03165b6040516001600160a01b039091168152602001610129565b3480156101ad57600080fd5b504761011f565b3480156101c057600080fd5b5061011f60015481565b6100e7610777565b3480156101de57600080fd5b5061011f60035481565b3480156101f457600080fd5b506100e7610203366004610a21565b6108a5565b34801561021457600080fd5b50600454610189906001600160a01b031681565b6000821161027d5760405162461bcd60e51b815260206004820152601b60248201527f416d6f756e74206d757374206265206d6f7265207468616e203021000000000060448201526064015b60405180910390fd5b6040516323b872dd60e01b8152336004820152306024820152604481018390526001600160a01b038216906323b872dd906064016020604051808303816000875af11580156102d0573d6000803e3d6000fd5b505050506040513d601f19601f820116820180604052508101906102f49190610a43565b505050565b60035460009061031183670de0b6b3a7640000610a65565b61031b9190610a92565b90506000821161037b5760405162461bcd60e51b815260206004820152602560248201527f596f75206e65656420746f2073656c6c206174206c6561737420736f6d6520746044820152646f6b656e7360d81b6064820152608401610274565b60048054604051636eb1769f60e11b815233928101929092523060248301526000916001600160a01b039091169063dd62ed3e90604401602060405180830381865afa1580156103cf573d6000803e3d6000fd5b505050506040513d601f19601f820116820180604052508101906103f39190610ab4565b9050828110156104455760405162461bcd60e51b815260206004820152601960248201527f436865636b2074686520746f6b656e20616c6c6f77616e6365000000000000006044820152606401610274565b600480546040516323b872dd60e01b81523392810192909252306024830152604482018590526001600160a01b0316906323b872dd906064016020604051808303816000875af115801561049d573d6000803e3d6000fd5b505050506040513d601f19601f820116820180604052508101906104c19190610a43565b50604051339083156108fc029084906000818181858888f193505050501580156104ef573d6000803e3d6000fd5b50505050565b600480546040516370a0823160e01b815230928101929092526000916001600160a01b03909116906370a0823190602401602060405180830381865afa158015610543573d6000803e3d6000fd5b505050506040513d601f19601f820116820180604052508101906105679190610ab4565b9050600082116105b95760405162461bcd60e51b815260206004820152601b60248201527f596f75206e65656420746f2073656e6420736f6d6520657468657200000000006044820152606401610274565b6002546000906105d184670de0b6b3a7640000610a65565b6105db9190610a92565b6004805460405163a9059cbb60e01b81523392810192909252602482018390529192506001600160a01b039091169063a9059cbb906044016020604051808303816000875af1158015610632573d6000803e3d6000fd5b505050506040513d601f19601f820116820180604052508101906106569190610a43565b61066257610662610acd565b6040518381527f4e08ba899977cf7d4c2964bce71c6b9a7ef76ee5166a4c1249a1e08016e33ef19060200160405180910390a1505050565b600480546040516370a0823160e01b815230928101929092526000916001600160a01b03909116906370a0823190602401602060405180830381865afa1580156106e8573d6000803e3d6000fd5b505050506040513d601f19601f8201168201806040525081019061070c9190610ab4565b905090565b6000546001600160a01b0316331461076b5760405162461bcd60e51b815260206004820181905260248201527f4f776e61626c653a2063616c6c6572206973206e6f7420746865206f776e65726044820152606401610274565b6107756000610970565b565b34806107c55760405162461bcd60e51b815260206004820152601b60248201527f596f75206e65656420746f2073656e6420736f6d6520657468657200000000006044820152606401610274565b6002546000906107dd83670de0b6b3a7640000610a65565b6107e79190610a92565b6004805460405163a9059cbb60e01b81523392810192909252602482018390529192506001600160a01b039091169063a9059cbb906044016020604051808303816000875af115801561083e573d6000803e3d6000fd5b505050506040513d601f19601f820116820180604052508101906108629190610a43565b61086e5761086e610acd565b6040518281527f4e08ba899977cf7d4c2964bce71c6b9a7ef76ee5166a4c1249a1e08016e33ef19060200160405180910390a15050565b6000546001600160a01b031633146108ff5760405162461bcd60e51b815260206004820181905260248201527f4f776e61626c653a2063616c6c6572206973206e6f7420746865206f776e65726044820152606401610274565b6001600160a01b0381166109645760405162461bcd60e51b815260206004820152602660248201527f4f776e61626c653a206e6577206f776e657220697320746865207a65726f206160448201526564647265737360d01b6064820152608401610274565b61096d81610970565b50565b600080546001600160a01b038381166001600160a01b0319831681178455604051919092169283917f8be0079c531659141344cd1fd0a4f28419497f9722a3daafe3b4186f6b6457e09190a35050565b80356001600160a01b03811681146109d757600080fd5b919050565b600080604083850312156109ef57600080fd5b823591506109ff602084016109c0565b90509250929050565b600060208284031215610a1a57600080fd5b5035919050565b600060208284031215610a3357600080fd5b610a3c826109c0565b9392505050565b600060208284031215610a5557600080fd5b81518015158114610a3c57600080fd5b6000816000190483118215151615610a8d57634e487b7160e01b600052601160045260246000fd5b500290565b600082610aaf57634e487b7160e01b600052601260045260246000fd5b500490565b600060208284031215610ac657600080fd5b5051919050565b634e487b7160e01b600052600160045260246000fdfea26469706673582212201caf5d33726636800753162c5c34212cbefef0bbd24daa9e4c139ce478d7268964736f6c634300080c0033","bytecodeSha1":"f74724901f9a497a792e6e9e4cc462ebc8029328","type":"contract","abi":[{"inputs":[{"internalType":"address","name":"_trantTokenAddress","type":"address"}],"stateMutability":"nonpayable","type":"constructor","name":"constructor"},{"anonymous":false,"inputs":[{"indexed":false,"internalType":"uint256","name":"amount","type":"uint256"}],"name":"Bought","type":"event"},{"anonymous":false,"inputs":[{"indexed":true,"internalType":"address","name":"previousOwner","type":"address"},{"indexed":true,"internalType":"address","name":"newOwner","type":"address"}],"name":"OwnershipTransferred","type":"event"},{"anonymous":false,"inputs":[{"indexed":false,"internalType":"uint256","name":"amount","type":"uint256"}],"name":"Sold","type":"event"},{"inputs":[{"internalType":"uint256","name":"amountInEth","type":"uint256"}],"name":"buyToken","outputs":[],"stateMutability":"payable","type":"function"},{"inputs":[],"name":"buyTokenOnPayload","outputs":[],"stateMutability":"payable","type":"function"},{"inputs":[],"name":"checkBalance","outputs":[{"internalType":"uint256","name":"","type":"uint256"}],"stateMutability":"view","type":"function"},{"inputs":[],"name":"checkTokenBalance","outputs":[{"internalType":"uint256","name":"","type":"uint256"}],"stateMutability":"view","type":"function"},{"inputs":[],"name":"creationTime","outputs":[{"internalType":"uint256","name":"","type":"uint256"}],"stateMutability":"view","type":"function"},{"inputs":[],"name":"owner","outputs":[{"internalType":"address","name":"","type":"address"}],"stateMutability":"view","type":"function"},{"inputs":[],"name":"rate","outputs":[{"internalType":"uint256","name":"","type":"uint256"}],"stateMutability":"view","type":"function"},{"inputs":[],"name":"rateMultiply","outputs":[{"internalType":"uint256","name":"","type":"uint256"}],"stateMutability":"view","type":"function"},{"inputs":[],"name":"renounceOwnership","outputs":[],"stateMutability":"nonpayable","type":"function"},{"inputs":[{"internalType":"uint256","name":"amount","type":"uint256"}],"name":"sellToken","outputs":[],"stateMutability":"nonpayable","type":"function"},{"inputs":[{"internalType":"uint256","name":"_amount","type":"uint256"},{"internalType":"address","name":"_token","type":"address"}],"name":"stakeTokens","outputs":[],"stateMutability":"nonpayable","type":"function"},{"inputs":[],"name":"token","outputs":[{"internalType":"contract IERC20","name":"","type":"address"}],"stateMutability":"view","type":"function"},{"inputs":[{"internalType":"address","name":"newOwner","type":"address"}],"name":"transferOwnership","outputs":[],"stateMutability":"nonpayable","type":"function"}],"compiler":{"version":"0.8.12+commit.f00d7308","evm_version":"istanbul","optimizer":{"enabled":true,"runs":200}},"contractName":"Exchange","language":"Solidity","natspec":{"methods":{"owner()":{"details":"Returns the address of the current owner."},"renounceOwnership()":{"details":"Leaves the contract without owner. It will not be possible to call `onlyOwner` functions anymore. Can only be called by the current owner. NOTE: Renouncing ownership will leave the contract without an owner, thereby removing any functionality that is only available to the owner."},"transferOwnership(address)":{"details":"Transfers ownership of the contract to a new account (`newOwner`). Can only be called by the current owner."}},"kind":"dev","version":1},"opcodes":"PUSH1 0x80 PUSH1 0x40 MSTORE PUSH1 0x4 CALLDATASIZE LT PUSH2 0xC2 JUMPI PUSH1 0x0 CALLDATALOAD PUSH1 0xE0 SHR DUP1 PUSH4 0x8DA5CB5B GT PUSH2 0x7F JUMPI DUP1 PUSH4 0xE0F2B23B GT PUSH2 0x59 JUMPI DUP1 PUSH4 0xE0F2B23B EQ PUSH2 0x1CA JUMPI DUP1 PUSH4 0xE62B7EA7 EQ PUSH2 0x1D2 JUMPI DUP1 PUSH4 0xF2FDE38B EQ PUSH2 0x1E8 JUMPI DUP1 PUSH4 0xFC0C546A EQ PUSH2 0x208 JUMPI PUSH1 0x0 DUP1 REVERT JUMPDEST DUP1 PUSH4 0x8DA5CB5B EQ PUSH2 0x16F JUMPI DUP1 PUSH4 0xC71DACCB EQ PUSH2 0x1A1 JUMPI DUP1 PUSH4 0xD8270DCE EQ PUSH2 0x1B4 JUMPI PUSH1 0x0 DUP1 REVERT JUMPDEST DUP1 PUSH4 0xBEA440D EQ PUSH2 0xC7 JUMPI DUP1 PUSH4 0x2397E4D7 EQ PUSH2 0xE9 JUMPI DUP1 PUSH4 0x2C4E722E EQ PUSH2 0x109 JUMPI DUP1 PUSH4 0x2D296BF1 EQ PUSH2 0x132 JUMPI DUP1 PUSH4 0x4F731087 EQ PUSH2 0x145 JUMPI DUP1 PUSH4 0x715018A6 EQ PUSH2 0x15A JUMPI JUMPDEST PUSH1 0x0 DUP1 REVERT JUMPDEST CALLVALUE DUP1 ISZERO PUSH2 0xD3 JUMPI PUSH1 0x0 DUP1 REVERT JUMPDEST POP PUSH2 0xE7 PUSH2 0xE2 CALLDATASIZE PUSH1 0x4 PUSH2 0x9DC JUMP JUMPDEST PUSH2 0x228 JUMP JUMPDEST STOP JUMPDEST CALLVALUE DUP1 ISZERO PUSH2 0xF5 JUMPI PUSH1 0x0 DUP1 REVERT JUMPDEST POP PUSH2 0xE7 PUSH2 0x104 CALLDATASIZE PUSH1 0x4 PUSH2 0xA08 JUMP JUMPDEST PUSH2 0x2F9 JUMP JUMPDEST CALLVALUE DUP1 ISZERO PUSH2 0x115 JUMPI PUSH1 0x0 DUP1 REVERT JUMPDEST POP PUSH2 0x11F PUSH1 0x2 SLOAD DUP2 JUMP JUMPDEST PUSH1 0x40 MLOAD SWAP1 DUP2 MSTORE PUSH1 0x20 ADD JUMPDEST PUSH1 0x40 MLOAD DUP1 SWAP2 SUB SWAP1 RETURN JUMPDEST PUSH2 0xE7 PUSH2 0x140 CALLDATASIZE PUSH1 0x4 PUSH2 0xA08 JUMP JUMPDEST PUSH2 0x4F5 JUMP JUMPDEST CALLVALUE DUP1 ISZERO PUSH2 0x151 JUMPI PUSH1 0x0 DUP1 REVERT JUMPDEST POP PUSH2 0x11F PUSH2 0x69A JUMP JUMPDEST CALLVALUE DUP1 ISZERO PUSH2 0x166 JUMPI PUSH1 0x0 DUP1 REVERT JUMPDEST POP PUSH2 0xE7 PUSH2 0x711 JUMP JUMPDEST CALLVALUE DUP1 ISZERO PUSH2 0x17B JUMPI PUSH1 0x0 DUP1 REVERT JUMPDEST POP PUSH1 0x0 SLOAD PUSH1 0x1 PUSH1 0x1 PUSH1 0xA0 SHL SUB AND JUMPDEST PUSH1 0x40 MLOAD PUSH1 0x1 PUSH1 0x1 PUSH1 0xA0 SHL SUB SWAP1 SWAP2 AND DUP2 MSTORE PUSH1 0x20 ADD PUSH2 0x129 JUMP JUMPDEST CALLVALUE DUP1 ISZERO PUSH2 0x1AD JUMPI PUSH1 0x0 DUP1 REVERT JUMPDEST POP SELFBALANCE PUSH2 0x11F JUMP JUMPDEST CALLVALUE DUP1 ISZERO PUSH2 0x1C0 JUMPI PUSH1 0x0 DUP1 REVERT JUMPDEST POP PUSH2 0x11F PUSH1 0x1 SLOAD DUP2 JUMP JUMPDEST PUSH2 0xE7 PUSH2 0x777 JUMP JUMPDEST CALLVALUE DUP1 ISZERO PUSH2 0x1DE JUMPI PUSH1 0x0 DUP1 REVERT JUMPDEST POP PUSH2 0x11F PUSH1 0x3 SLOAD DUP2 JUMP JUMPDEST CALLVALUE DUP1 ISZERO PUSH2 0x1F4 JUMPI PUSH1 0x0 DUP1 REVERT JUMPDEST POP PUSH2 0xE7 PUSH2 0x203 CALLDATASIZE PUSH1 0x4 PUSH2 0xA21 JUMP JUMPDEST PUSH2 0x8A5 JUMP JUMPDEST CALLVALUE DUP1 ISZERO PUSH2 0x214 JUMPI PUSH1 0x0 DUP1 REVERT JUMPDEST POP PUSH1 0x4 SLOAD PUSH2 0x189 SWAP1 PUSH1 0x1 PUSH1 0x1 PUSH1 0xA0 SHL SUB AND DUP2 JUMP JUMPDEST PUSH1 0x0 DUP3 GT PUSH2 0x27D JUMPI PUSH1 0x40 MLOAD PUSH3 0x461BCD PUSH1 0xE5 SHL DUP2 MSTORE PUSH1 0x20 PUSH1 0x4 DUP3 ADD MSTORE PUSH1 0x1B PUSH1 0x24 DUP3 ADD MSTORE PUSH32 0x416D6F756E74206D757374206265206D6F7265207468616E2030210000000000 PUSH1 0x44 DUP3 ADD MSTORE PUSH1 0x64 ADD JUMPDEST PUSH1 0x40 MLOAD DUP1 SWAP2 SUB SWAP1 REVERT JUMPDEST PUSH1 0x40 MLOAD PUSH4 0x23B872DD PUSH1 0xE0 SHL DUP2 MSTORE CALLER PUSH1 0x4 DUP3 ADD MSTORE ADDRESS PUSH1 0x24 DUP3 ADD MSTORE PUSH1 0x44 DUP2 ADD DUP4 SWAP1 MSTORE PUSH1 0x1 PUSH1 0x1 PUSH1 0xA0 SHL SUB DUP3 AND SWAP1 PUSH4 0x23B872DD SWAP1 PUSH1 0x64 ADD PUSH1 0x20 PUSH1 0x40 MLOAD DUP1 DUP4 SUB DUP2 PUSH1 0x0 DUP8 GAS CALL ISZERO DUP1 ISZERO PUSH2 0x2D0 JUMPI RETURNDATASIZE PUSH1 0x0 DUP1 RETURNDATACOPY RETURNDATASIZE PUSH1 0x0 REVERT JUMPDEST POP POP POP POP PUSH1 0x40 MLOAD RETURNDATASIZE PUSH1 0x1F NOT PUSH1 0x1F DUP3 ADD AND DUP3 ADD DUP1 PUSH1 0x40 MSTORE POP DUP2 ADD SWAP1 PUSH2 0x2F4 SWAP2 SWAP1 PUSH2 0xA43 JUMP JUMPDEST POP POP POP JUMP JUMPDEST PUSH1 0x3 SLOAD PUSH1 0x0 SWAP1 PUSH2 0x311 DUP4 PUSH8 0xDE0B6B3A7640000 PUSH2 0xA65 JUMP JUMPDEST PUSH2 0x31B SWAP2 SWAP1 PUSH2 0xA92 JUMP JUMPDEST SWAP1 POP PUSH1 0x0 DUP3 GT PUSH2 0x37B JUMPI PUSH1 0x40 MLOAD PUSH3 0x461BCD PUSH1 0xE5 SHL DUP2 MSTORE PUSH1 0x20 PUSH1 0x4 DUP3 ADD MSTORE PUSH1 0x25 PUSH1 0x24 DUP3 ADD MSTORE PUSH32 0x596F75206E65656420746F2073656C6C206174206C6561737420736F6D652074 PUSH1 0x44 DUP3 ADD MSTORE PUSH5 0x6F6B656E73 PUSH1 0xD8 SHL PUSH1 0x64 DUP3 ADD MSTORE PUSH1 0x84 ADD PUSH2 0x274 JUMP JUMPDEST PUSH1 0x4 DUP1 SLOAD PUSH1 0x40 MLOAD PUSH4 0x6EB1769F PUSH1 0xE1 SHL DUP2 MSTORE CALLER SWAP3 DUP2 ADD SWAP3 SWAP1 SWAP3 MSTORE ADDRESS PUSH1 0x24 DUP4 ADD MSTORE PUSH1 0x0 SWAP2 PUSH1 0x1 PUSH1 0x1 PUSH1 0xA0 SHL SUB SWAP1 SWAP2 AND SWAP1 PUSH4 0xDD62ED3E SWAP1 PUSH1 0x44 ADD PUSH1 0x20 PUSH1 0x40 MLOAD DUP1 DUP4 SUB DUP2 DUP7 GAS STATICCALL ISZERO DUP1 ISZERO PUSH2 0x3CF JUMPI RETURNDATASIZE PUSH1 0x0 DUP1 RETURNDATACOPY RETURNDATASIZE PUSH1 0x0 REVERT JUMPDEST POP POP POP POP PUSH1 0x40 MLOAD RETURNDATASIZE PUSH1 0x1F NOT PUSH1 0x1F DUP3 ADD AND DUP3 ADD DUP1 PUSH1 0x40 MSTORE POP DUP2 ADD SWAP1 PUSH2 0x3F3 SWAP2 SWAP1 PUSH2 0xAB4 JUMP JUMPDEST SWAP1 POP DUP3 DUP2 LT ISZERO PUSH2 0x445 JUMPI PUSH1 0x40 MLOAD PUSH3 0x461BCD PUSH1 0xE5 SHL DUP2 MSTORE PUSH1 0x20 PUSH1 0x4 DUP3 ADD MSTORE PUSH1 0x19 PUSH1 0x24 DUP3 ADD MSTORE PUSH32 0x436865636B2074686520746F6B656E20616C6C6F77616E636500000000000000 PUSH1 0x44 DUP3 ADD MSTORE PUSH1 0x64 ADD PUSH2 0x274 JUMP JUMPDEST PUSH1 0x4 DUP1 SLOAD PUSH1 0x40 MLOAD PUSH4 0x23B872DD PUSH1 0xE0 SHL DUP2 MSTORE CALLER SWAP3 DUP2 ADD SWAP3 SWAP1 SWAP3 MSTORE ADDRESS PUSH1 0x24 DUP4 ADD MSTORE PUSH1 0x44 DUP3 ADD DUP6 SWAP1 MSTORE PUSH1 0x1 PUSH1 0x1 PUSH1 0xA0 SHL SUB AND SWAP1 PUSH4 0x23B872DD SWAP1 PUSH1 0x64 ADD PUSH1 0x20 PUSH1 0x40 MLOAD DUP1 DUP4 SUB DUP2 PUSH1 0x0 DUP8 GAS CALL ISZERO DUP1 ISZERO PUSH2 0x49D JUMPI RETURNDATASIZE PUSH1 0x0 DUP1 RETURNDATACOPY RETURNDATASIZE PUSH1 0x0 REVERT JUMPDEST POP POP POP POP PUSH1 0x40 MLOAD RETURNDATASIZE PUSH1 0x1F NOT PUSH1 0x1F DUP3 ADD AND DUP3 ADD DUP1 PUSH1 0x40 MSTORE POP DUP2 ADD SWAP1 PUSH2 0x4C1 SWAP2 SWAP1 PUSH2 0xA43 JUMP JUMPDEST POP PUSH1 0x40 MLOAD CALLER SWAP1 DUP4 ISZERO PUSH2 0x8FC MUL SWAP1 DUP5 SWAP1 PUSH1 0x0 DUP2 DUP2 DUP2 DUP6 DUP9 DUP9 CALL SWAP4 POP POP POP POP ISZERO DUP1 ISZERO PUSH2 0x4EF JUMPI RETURNDATASIZE PUSH1 0x0 DUP1 RETURNDATACOPY RETURNDATASIZE PUSH1 0x0 REVERT JUMPDEST POP POP POP POP JUMP JUMPDEST PUSH1 0x4 DUP1 SLOAD PUSH1 0x40 MLOAD PUSH4 0x70A08231 PUSH1 0xE0 SHL DUP2 MSTORE ADDRESS SWAP3 DUP2 ADD SWAP3 SWAP1 SWAP3 MSTORE PUSH1 0x0 SWAP2 PUSH1 0x1 PUSH1 0x1 PUSH1 0xA0 SHL SUB SWAP1 SWAP2 AND SWAP1 PUSH4 0x70A08231 SWAP1 PUSH1 0x24 ADD PUSH1 0x20 PUSH1 0x40 MLOAD DUP1 DUP4 SUB DUP2 DUP7 GAS STATICCALL ISZERO DUP1 ISZERO PUSH2 0x543 JUMPI RETURNDATASIZE PUSH1 0x0 DUP1 RETURNDATACOPY RETURNDATASIZE PUSH1 0x0 REVERT JUMPDEST POP POP POP POP PUSH1 0x40 MLOAD RETURNDATASIZE PUSH1 0x1F NOT PUSH1 0x1F DUP3 ADD AND DUP3 ADD DUP1 PUSH1 0x40 MSTORE POP DUP2 ADD SWAP1 PUSH2 0x567 SWAP2 SWAP1 PUSH2 0xAB4 JUMP JUMPDEST SWAP1 POP PUSH1 0x0 DUP3 GT PUSH2 0x5B9 JUMPI PUSH1 0x40 MLOAD PUSH3 0x461BCD PUSH1 0xE5 SHL DUP2 MSTORE PUSH1 0x20 PUSH1 0x4 DUP3 ADD MSTORE PUSH1 0x1B PUSH1 0x24 DUP3 ADD MSTORE PUSH32 0x596F75206E65656420746F2073656E6420736F6D652065746865720000000000 PUSH1 0x44 DUP3 ADD MSTORE PUSH1 0x64 ADD PUSH2 0x274 JUMP JUMPDEST PUSH1 0x2 SLOAD PUSH1 0x0 SWAP1 PUSH2 0x5D1 DUP5 PUSH8 0xDE0B6B3A7640000 PUSH2 0xA65 JUMP JUMPDEST PUSH2 0x5DB SWAP2 SWAP1 PUSH2 0xA92 JUMP JUMPDEST PUSH1 0x4 DUP1 SLOAD PUSH1 0x40 MLOAD PUSH4 0xA9059CBB PUSH1 0xE0 SHL DUP2 MSTORE CALLER SWAP3 DUP2 ADD SWAP3 SWAP1 SWAP3 MSTORE PUSH1 0x24 DUP3 ADD DUP4 SWAP1 MSTORE SWAP2 SWAP3 POP PUSH1 0x1 PUSH1 0x1 PUSH1 0xA0 SHL SUB SWAP1 SWAP2 AND SWAP1 PUSH4 0xA9059CBB SWAP1 PUSH1 0x44 ADD PUSH1 0x20 PUSH1 0x40 MLOAD DUP1 DUP4 SUB DUP2 PUSH1 0x0 DUP8 GAS CALL ISZERO DUP1 ISZERO PUSH2 0x632 JUMPI RETURNDATASIZE PUSH1 0x0 DUP1 RETURNDATACOPY RETURNDATASIZE PUSH1 0x0 REVERT JUMPDEST POP POP POP POP PUSH1 0x40 MLOAD RETURNDATASIZE PUSH1 0x1F NOT PUSH1 0x1F DUP3 ADD AND DUP3 ADD DUP1 PUSH1 0x40 MSTORE POP DUP2 ADD SWAP1 PUSH2 0x656 SWAP2 SWAP1 PUSH2 0xA43 JUMP JUMPDEST PUSH2 0x662 JUMPI PUSH2 0x662 PUSH2 0xACD JUMP JUMPDEST PUSH1 0x40 MLOAD DUP4 DUP2 MSTORE PUSH32 0x4E08BA899977CF7D4C2964BCE71C6B9A7EF76EE5166A4C1249A1E08016E33EF1 SWAP1 PUSH1 0x20 ADD PUSH1 0x40 MLOAD DUP1 SWAP2 SUB SWAP1 LOG1 POP POP POP JUMP JUMPDEST PUSH1 0x4 DUP1 SLOAD PUSH1 0x40 MLOAD PUSH4 0x70A08231 PUSH1 0xE0 SHL DUP2 MSTORE ADDRESS SWAP3 DUP2 ADD SWAP3 SWAP1 SWAP3 MSTORE PUSH1 0x0 SWAP2 PUSH1 0x1 PUSH1 0x1 PUSH1 0xA0 SHL SUB SWAP1 SWAP2 AND SWAP1 PUSH4 0x70A08231 SWAP1 PUSH1 0x24 ADD PUSH1 0x20 PUSH1 0x40 MLOAD DUP1 DUP4 SUB DUP2 DUP7 GAS STATICCALL ISZERO DUP1 ISZERO PUSH2 0x6E8 JUMPI RETURNDATASIZE PUSH1 0x0 DUP1 RETURNDATACOPY RETURNDATASIZE PUSH1 0x0 REVERT JUMPDEST POP POP POP POP PUSH1 0x40 MLOAD RETURNDATASIZE PUSH1 0x1F NOT PUSH1 0x1F DUP3 ADD AND DUP3 ADD DUP1 PUSH1 0x40 MSTORE POP DUP2 ADD SWAP1 PUSH2 0x70C SWAP2 SWAP1 PUSH2 0xAB4 JUMP JUMPDEST SWAP1 POP SWAP1 JUMP JUMPDEST PUSH1 0x0 SLOAD PUSH1 0x1 PUSH1 0x1 PUSH1 0xA0 SHL SUB AND CALLER EQ PUSH2 0x76B JUMPI PUSH1 0x40 MLOAD PUSH3 0x461BCD PUSH1 0xE5 SHL DUP2 MSTORE PUSH1 0x20 PUSH1 0x4 DUP3 ADD DUP2 SWAP1 MSTORE PUSH1 0x24 DUP3 ADD MSTORE PUSH32 0x4F776E61626C653A2063616C6C6572206973206E6F7420746865206F776E6572 PUSH1 0x44 DUP3 ADD MSTORE PUSH1 0x64 ADD PUSH2 0x274 JUMP JUMPDEST PUSH2 0x775 PUSH1 0x0 PUSH2 0x970 JUMP JUMPDEST JUMP JUMPDEST CALLVALUE DUP1 PUSH2 0x7C5 JUMPI PUSH1 0x40 MLOAD PUSH3 0x461BCD PUSH1 0xE5 SHL DUP2 MSTORE PUSH1 0x20 PUSH1 0x4 DUP3 ADD MSTORE PUSH1 0x1B PUSH1 0x24 DUP3 ADD MSTORE PUSH32 0x596F75206E65656420746F2073656E6420736F6D652065746865720000000000 PUSH1 0x44 DUP3 ADD MSTORE PUSH1 0x64 ADD PUSH2 0x274 JUMP JUMPDEST PUSH1 0x2 SLOAD PUSH1 0x0 SWAP1 PUSH2 0x7DD DUP4 PUSH8 0xDE0B6B3A7640000 PUSH2 0xA65 JUMP JUMPDEST PUSH2 0x7E7 SWAP2 SWAP1 PUSH2 0xA92 JUMP JUMPDEST PUSH1 0x4 DUP1 SLOAD PUSH1 0x40 MLOAD PUSH4 0xA9059CBB PUSH1 0xE0 SHL DUP2 MSTORE CALLER SWAP3 DUP2 ADD SWAP3 SWAP1 SWAP3 MSTORE PUSH1 0x24 DUP3 ADD DUP4 SWAP1 MSTORE SWAP2 SWAP3 POP PUSH1 0x1 PUSH1 0x1 PUSH1 0xA0 SHL SUB SWAP1 SWAP2 AND SWAP1 PUSH4 0xA9059CBB SWAP1 PUSH1 0x44 ADD PUSH1 0x20 PUSH1 0x40 MLOAD DUP1 DUP4 SUB DUP2 PUSH1 0x0 DUP8 GAS CALL ISZERO DUP1 ISZERO PUSH2 0x83E JUMPI RETURNDATASIZE PUSH1 0x0 DUP1 RETURNDATACOPY RETURNDATASIZE PUSH1 0x0 REVERT JUMPDEST POP POP POP POP PUSH1 0x40 MLOAD RETURNDATASIZE PUSH1 0x1F NOT PUSH1 0x1F DUP3 ADD AND DUP3 ADD DUP1 PUSH1 0x40 MSTORE POP DUP2 ADD SWAP1 PUSH2 0x862 SWAP2 SWAP1 PUSH2 0xA43 JUMP JUMPDEST PUSH2 0x86E JUMPI PUSH2 0x86E PUSH2 0xACD JUMP JUMPDEST PUSH1 0x40 MLOAD DUP3 DUP2 MSTORE PUSH32 0x4E08BA899977CF7D4C2964BCE71C6B9A7EF76EE5166A4C1249A1E08016E33EF1 SWAP1 PUSH1 0x20 ADD PUSH1 0x40 MLOAD DUP1 SWAP2 SUB SWAP1 LOG1 POP POP JUMP JUMPDEST PUSH1 0x0 SLOAD PUSH1 0x1 PUSH1 0x1 PUSH1 0xA0 SHL SUB AND CALLER EQ PUSH2 0x8FF JUMPI PUSH1 0x40 MLOAD PUSH3 0x461BCD PUSH1 0xE5 SHL DUP2 MSTORE PUSH1 0x20 PUSH1 0x4 DUP3 ADD DUP2 SWAP1 MSTORE PUSH1 0x24 DUP3 ADD MSTORE PUSH32 0x4F776E61626C653A2063616C6C6572206973206E6F7420746865206F776E6572 PUSH1 0x44 DUP3 ADD MSTORE PUSH1 0x64 ADD PUSH2 0x274 JUMP JUMPDEST PUSH1 0x1 PUSH1 0x1 PUSH1 0xA0 SHL SUB DUP2 AND PUSH2 0x964 JUMPI PUSH1 0x40 MLOAD PUSH3 0x461BCD PUSH1 0xE5 SHL DUP2 MSTORE PUSH1 0x20 PUSH1 0x4 DUP3 ADD MSTORE PUSH1 0x26 PUSH1 0x24 DUP3 ADD MSTORE PUSH32 0x4F776E61626C653A206E6577206F776E657220697320746865207A65726F2061 PUSH1 0x44 DUP3 ADD MSTORE PUSH6 0x646472657373 PUSH1 0xD0 SHL PUSH1 0x64 DUP3 ADD MSTORE PUSH1 0x84 ADD PUSH2 0x274 JUMP JUMPDEST PUSH2 0x96D DUP2 PUSH2 0x970 JUMP JUMPDEST POP JUMP JUMPDEST PUSH1 0x0 DUP1 SLOAD PUSH1 0x1 PUSH1 0x1 PUSH1 0xA0 SHL SUB DUP4 DUP2 AND PUSH1 0x1 PUSH1 0x1 PUSH1 0xA0 SHL SUB NOT DUP4 AND DUP2 OR DUP5 SSTORE PUSH1 0x40 MLOAD SWAP2 SWAP1 SWAP3 AND SWAP3 DUP4 SWAP2 PUSH32 0x8BE0079C531659141344CD1FD0A4F28419497F9722A3DAAFE3B4186F6B6457E0 SWAP2 SWAP1 LOG3 POP POP JUMP JUMPDEST DUP1 CALLDATALOAD PUSH1 0x1 PUSH1 0x1 PUSH1 0xA0 SHL SUB DUP2 AND DUP2 EQ PUSH2 0x9D7 JUMPI PUSH1 0x0 DUP1 REVERT JUMPDEST SWAP2 SWAP1 POP JUMP JUMPDEST PUSH1 0x0 DUP1 PUSH1 0x40 DUP4 DUP6 SUB SLT ISZERO PUSH2 0x9EF JUMPI PUSH1 0x0 DUP1 REVERT JUMPDEST DUP3 CALLDATALOAD SWAP2 POP PUSH2 0x9FF PUSH1 0x20 DUP5 ADD PUSH2 0x9C0 JUMP JUMPDEST SWAP1 POP SWAP3 POP SWAP3 SWAP1 POP JUMP JUMPDEST PUSH1 0x0 PUSH1 0x20 DUP3 DUP5 SUB SLT ISZERO PUSH2 0xA1A JUMPI PUSH1 0x0 DUP1 REVERT JUMPDEST POP CALLDATALOAD SWAP2 SWAP1 POP JUMP JUMPDEST PUSH1 0x0 PUSH1 0x20 DUP3 DUP5 SUB SLT ISZERO PUSH2 0xA33 JUMPI PUSH1 0x0 DUP1 REVERT JUMPDEST PUSH2 0xA3C DUP3 PUSH2 0x9C0 JUMP JUMPDEST SWAP4 SWAP3 POP POP POP JUMP JUMPDEST PUSH1 0x0 PUSH1 0x20 DUP3 DUP5 SUB SLT ISZERO PUSH2 0xA55 JUMPI PUSH1 0x0 DUP1 REVERT JUMPDEST DUP2 MLOAD DUP1 ISZERO ISZERO DUP2 EQ PUSH2 0xA3C JUMPI PUSH1 0x0 DUP1 REVERT JUMPDEST PUSH1 0x0 DUP2 PUSH1 0x0 NOT DIV DUP4 GT DUP3 ISZERO ISZERO AND ISZERO PUSH2 0xA8D JUMPI PUSH4 0x4E487B71 PUSH1 0xE0 SHL PUSH1 0x0 MSTORE PUSH1 0x11 PUSH1 0x4 MSTORE PUSH1 0x24 PUSH1 0x0 REVERT JUMPDEST POP MUL SWAP1 JUMP JUMPDEST PUSH1 0x0 DUP3 PUSH2 0xAAF JUMPI PUSH4 0x4E487B71 PUSH1 0xE0 SHL PUSH1 0x0 MSTORE PUSH1 0x12 PUSH1 0x4 MSTORE PUSH1 0x24 PUSH1 0x0 REVERT JUMPDEST POP DIV SWAP1 JUMP JUMPDEST PUSH1 0x0 PUSH1 0x20 DUP3 DUP5 SUB SLT ISZERO PUSH2 0xAC6 JUMPI PUSH1 0x0 DUP1 REVERT JUMPDEST POP MLOAD SWAP2 SWAP1 POP JUMP JUMPDEST PUSH4 0x4E487B71 PUSH1 0xE0 SHL PUSH1 0x0 MSTORE PUSH1 0x1 PUSH1 0x4 MSTORE PUSH1 0x24 PUSH1 0x0 REVERT INVALID LOG2 PUSH5 0x6970667358 0x22 SLT KECCAK256 SHR 0xAF 0x5D CALLER PUSH19 0x6636800753162C5C34212CBEFEF0BBD24DAA9E 0x4C SGT SWAP13 0xE4 PUSH25 0xD7268964736F6C634300080C00330000000000000000000000 ","sha1":"d7008619a121ced5ba97e1d4f1f666b4a59ef6a9","source":"// SPDX-License-Identifier:MIT\n\npragma solidity ^0.8.0;\n\nimport \"@openzeppelin/contracts/token/ERC20/IERC20.sol\";\nimport \"@openzeppelin/contracts/token/ERC20/ERC20.sol\";\nimport \"@openzeppelin/contracts/access/Ownable.sol\";\nimport \"./Manage.sol\";\nimport \"./TokenBase.sol\";\n\n//Interface name is not important, however functions in it are important\n// interface TokenBaseInterface {\n//     function sendReward(uint256 amount, address user) external;\n// }\n\ncontract Exchange is Ownable {\n    uint256 public creationTime = block.timestamp;\n    uint256 public rate = 1e14; // tokens for 1 eth\n    uint256 public rateMultiply = 1e5;\n    event Bought(uint256 amount);\n    event Sold(uint256 amount);\n\n    IERC20 public token;\n    // address public tokenBase;\n\n    mapping(address => uint256) tokenPriceFeed;\n\n    constructor(address _trantTokenAddress) {\n        token = IERC20(_trantTokenAddress);\n        // tokenBase = _tokenBase;\n    }\n\n    function checkBalance() public view returns (uint256) {\n        return address(this).balance;\n    }\n\n    function checkTokenBalance() public view returns (uint256) {\n        return token.balanceOf(address(this));\n    }\n\n    //10000 unit buy\n    // should equal to 1 ether\n    function buyToken(uint256 amountInEth) public payable {\n        // uint256 amountTobuy = msg.value;\n        uint256 dexBalance = token.balanceOf(address(this));\n        require(amountInEth > 0, \"You need to send some ether\");\n        // require(amountTobuy <= dexBalance, \"Not enough tokens in the reserve\");\n\n        uint256 tokenReturn = (amountInEth * 1 ether) / rate;\n        // require(amountTobuy >= costWei);\n        assert(token.transfer(msg.sender, tokenReturn));\n        emit Bought(amountInEth);\n    }\n\n    function buyTokenOnPayload() public payable {\n        uint256 amountInEth = msg.value;\n        // uint256 dexBalance = token.balanceOf(address(this));\n        require(amountInEth > 0, \"You need to send some ether\");\n        // require(amountTobuy <= dexBalance, \"Not enough tokens in the reserve\");\n\n        uint256 tokenReturn = (amountInEth * 1 ether) / rate;\n        // // require(amountTobuy >= costWei);\n        // assert(token.transferFrom(address(this), msg.sender, tokenReturn));\n        assert(token.transfer(msg.sender, tokenReturn));\n        emit Bought(amountInEth);\n    }\n\n    function sellToken(uint256 amount) public {\n        uint256 exchangeEth = (amount * 1 ether) / rateMultiply;\n        require(amount > 0, \"You need to sell at least some tokens\");\n        uint256 allowance = token.allowance(msg.sender, address(this));\n        require(allowance >= amount, \"Check the token allowance\");\n        token.transferFrom(msg.sender, address(this), amount);\n        payable(msg.sender).transfer(exchangeEth);\n        // emit Sold(amount);\n    }\n\n    function stakeTokens(uint256 _amount, address _token) public {\n        //what tokens can they stake?\n        // how much can they stake?\n        require(_amount > 0, \"Amount must be more than 0!\");\n        // require(tokenIsAllowed(_token), \"Token is currently no allowed!\");\n        //transfer from function needed.\n        // ERC20 2 types transfer(can be called by only the owner) and transferFrom\n        IERC20(_token).transferFrom(msg.sender, address(this), _amount); //we have the ABI via this IERC20\n    }\n\n    // function sendPayment(\n    //     uint256 _amount,\n    //     address _token,\n    //     address station\n    // ) public {\n    //     require(_amount > 0, \"Amount must be more than 0!\");\n    //     // require(isTokenAllowed(_token), \"You should send TRANT\");\n    //     // require(trantToken.balanceOf(address(msg.sender)) > _amount);\n    //     token.transferFrom(msg.sender, station, _amount);\n    //     // sendReward(10, msg.sender);\n    // }\n\n    function sendReward(uint256 amount, address user) internal onlyOwner {\n        //managerOnly {\n        uint256 dexBalance = token.balanceOf(address(this));\n        require(amount <= dexBalance, \"Not enough tokens in the reserve\");\n        token.approve(address(this), 10);\n        token.transfer(user, 10);\n    }\n}\n","sourcePath":"contracts/Exchange.sol","deployment":{"address":"0xA62f5FDf79568a42Bd4BcBCcBC0B5365eaD385b5","chainid":"42","blockHeight":32242051}}