{"bytecode":"608060405242600155655af3107a4000600255620186a060035534801561002557600080fd5b50604051610f68380380610f68833981016040819052610044916100c2565b61004d33610072565b600480546001600160a01b0319166001600160a01b03929092169190911790556100f2565b600080546001600160a01b038381166001600160a01b0319831681178455604051919092169283917f8be0079c531659141344cd1fd0a4f28419497f9722a3daafe3b4186f6b6457e09190a35050565b6000602082840312156100d457600080fd5b81516001600160a01b03811681146100eb57600080fd5b9392505050565b610e67806101016000396000f3fe6080604052600436106100e85760003560e01c80638da5cb5b1161008a578063e0f2b23b11610059578063e0f2b23b14610218578063e62b7ea714610220578063f2fde38b14610236578063fc0c546a1461025657600080fd5b80638da5cb5b146101b5578063a6f2ae3a146101e7578063c71daccb146101ef578063d8270dce1461020257600080fd5b80632d296bf1116100c65780632d296bf11461015857806331f27b071461016b5780634f7310871461018b578063715018a6146101a057600080fd5b80630bea440d146100ed5780632397e4d71461010f5780632c4e722e1461012f575b600080fd5b3480156100f957600080fd5b5061010d610108366004610cf5565b610276565b005b34801561011b57600080fd5b5061010d61012a366004610d21565b610348565b34801561013b57600080fd5b5061014560025481565b6040519081526020015b60405180910390f35b61010d610166366004610d21565b610544565b34801561017757600080fd5b5061010d610186366004610cf5565b6106e9565b34801561019757600080fd5b506101456108c7565b3480156101ac57600080fd5b5061010d61093e565b3480156101c157600080fd5b506000546001600160a01b03165b6040516001600160a01b03909116815260200161014f565b61010d610974565b3480156101fb57600080fd5b5047610145565b34801561020e57600080fd5b5061014560015481565b61010d610ac0565b34801561022c57600080fd5b5061014560035481565b34801561024257600080fd5b5061010d610251366004610d3a565b610bee565b34801561026257600080fd5b506004546101cf906001600160a01b031681565b600082116102cb5760405162461bcd60e51b815260206004820152601b60248201527f416d6f756e74206d757374206265206d6f7265207468616e203021000000000060448201526064015b60405180910390fd5b6040516323b872dd60e01b8152336004820152306024820152604481018390526001600160a01b038216906323b872dd906064015b6020604051808303816000875af115801561031f573d6000803e3d6000fd5b505050506040513d601f19601f820116820180604052508101906103439190610d5c565b505050565b60035460009061036083670de0b6b3a7640000610d7e565b61036a9190610dab565b9050600082116103ca5760405162461bcd60e51b815260206004820152602560248201527f596f75206e65656420746f2073656c6c206174206c6561737420736f6d6520746044820152646f6b656e7360d81b60648201526084016102c2565b60048054604051636eb1769f60e11b815233928101929092523060248301526000916001600160a01b039091169063dd62ed3e90604401602060405180830381865afa15801561041e573d6000803e3d6000fd5b505050506040513d601f19601f820116820180604052508101906104429190610dcd565b9050828110156104945760405162461bcd60e51b815260206004820152601960248201527f436865636b2074686520746f6b656e20616c6c6f77616e63650000000000000060448201526064016102c2565b600480546040516323b872dd60e01b81523392810192909252306024830152604482018590526001600160a01b0316906323b872dd906064016020604051808303816000875af11580156104ec573d6000803e3d6000fd5b505050506040513d601f19601f820116820180604052508101906105109190610d5c565b50604051339083156108fc029084906000818181858888f1935050505015801561053e573d6000803e3d6000fd5b50505050565b600480546040516370a0823160e01b815230928101929092526000916001600160a01b03909116906370a0823190602401602060405180830381865afa158015610592573d6000803e3d6000fd5b505050506040513d601f19601f820116820180604052508101906105b69190610dcd565b9050600082116106085760405162461bcd60e51b815260206004820152601b60248201527f596f75206e65656420746f2073656e6420736f6d65206574686572000000000060448201526064016102c2565b60025460009061062084670de0b6b3a7640000610d7e565b61062a9190610dab565b6004805460405163a9059cbb60e01b81523392810192909252602482018390529192506001600160a01b039091169063a9059cbb906044016020604051808303816000875af1158015610681573d6000803e3d6000fd5b505050506040513d601f19601f820116820180604052508101906106a59190610d5c565b6106b1576106b1610de6565b6040518381527f4e08ba899977cf7d4c2964bce71c6b9a7ef76ee5166a4c1249a1e08016e33ef19060200160405180910390a1505050565b6000546001600160a01b031633146107135760405162461bcd60e51b81526004016102c290610dfc565b600480546040516370a0823160e01b815230928101929092526000916001600160a01b03909116906370a0823190602401602060405180830381865afa158015610761573d6000803e3d6000fd5b505050506040513d601f19601f820116820180604052508101906107859190610dcd565b9050808311156107d75760405162461bcd60e51b815260206004820181905260248201527f4e6f7420656e6f75676820746f6b656e7320696e20746865207265736572766560448201526064016102c2565b6004805460405163095ea7b360e01b81523092810192909252600a60248301526001600160a01b03169063095ea7b3906044016020604051808303816000875af1158015610829573d6000803e3d6000fd5b505050506040513d601f19601f8201168201806040525081019061084d9190610d5c565b506004805460405163a9059cbb60e01b81526001600160a01b0385811693820193909352600a602482015291169063a9059cbb906044016020604051808303816000875af11580156108a3573d6000803e3d6000fd5b505050506040513d601f19601f8201168201806040525081019061053e9190610d5c565b600480546040516370a0823160e01b815230928101929092526000916001600160a01b03909116906370a0823190602401602060405180830381865afa158015610915573d6000803e3d6000fd5b505050506040513d601f19601f820116820180604052508101906109399190610dcd565b905090565b6000546001600160a01b031633146109685760405162461bcd60e51b81526004016102c290610dfc565b6109726000610c89565b565b600480546040516370a0823160e01b8152309281019290925234916000916001600160a01b0316906370a0823190602401602060405180830381865afa1580156109c2573d6000803e3d6000fd5b505050506040513d601f19601f820116820180604052508101906109e69190610dcd565b905060008211610a385760405162461bcd60e51b815260206004820152601b60248201527f596f75206e65656420746f2073656e6420736f6d65204574686572000000000060448201526064016102c2565b80821115610a885760405162461bcd60e51b815260206004820181905260248201527f4e6f7420656e6f75676820746f6b656e7320696e20746865207265736572766560448201526064016102c2565b6004805460405163a9059cbb60e01b81523392810192909252602482018490526001600160a01b03169063a9059cbb90604401610300565b3480610b0e5760405162461bcd60e51b815260206004820152601b60248201527f596f75206e65656420746f2073656e6420736f6d65206574686572000000000060448201526064016102c2565b600254600090610b2683670de0b6b3a7640000610d7e565b610b309190610dab565b6004805460405163a9059cbb60e01b81523392810192909252602482018390529192506001600160a01b039091169063a9059cbb906044016020604051808303816000875af1158015610b87573d6000803e3d6000fd5b505050506040513d601f19601f82011682018060405250810190610bab9190610d5c565b610bb757610bb7610de6565b6040518281527f4e08ba899977cf7d4c2964bce71c6b9a7ef76ee5166a4c1249a1e08016e33ef19060200160405180910390a15050565b6000546001600160a01b03163314610c185760405162461bcd60e51b81526004016102c290610dfc565b6001600160a01b038116610c7d5760405162461bcd60e51b815260206004820152602660248201527f4f776e61626c653a206e6577206f776e657220697320746865207a65726f206160448201526564647265737360d01b60648201526084016102c2565b610c8681610c89565b50565b600080546001600160a01b038381166001600160a01b0319831681178455604051919092169283917f8be0079c531659141344cd1fd0a4f28419497f9722a3daafe3b4186f6b6457e09190a35050565b80356001600160a01b0381168114610cf057600080fd5b919050565b60008060408385031215610d0857600080fd5b82359150610d1860208401610cd9565b90509250929050565b600060208284031215610d3357600080fd5b5035919050565b600060208284031215610d4c57600080fd5b610d5582610cd9565b9392505050565b600060208284031215610d6e57600080fd5b81518015158114610d5557600080fd5b6000816000190483118215151615610da657634e487b7160e01b600052601160045260246000fd5b500290565b600082610dc857634e487b7160e01b600052601260045260246000fd5b500490565b600060208284031215610ddf57600080fd5b5051919050565b634e487b7160e01b600052600160045260246000fd5b6020808252818101527f4f776e61626c653a2063616c6c6572206973206e6f7420746865206f776e657260408201526060019056fea2646970667358221220190bbfc3a85ddc9f92327efdf3296028889083717f9be41990ee8de045091a4d64736f6c634300080c0033","bytecodeSha1":"11901c5cf7595e2215c35fee67c54ddf3e63b4fa","type":"contract","abi":[{"inputs":[{"internalType":"address","name":"_trantTokenAddress","type":"address"}],"stateMutability":"nonpayable","type":"constructor","name":"constructor"},{"anonymous":false,"inputs":[{"indexed":false,"internalType":"uint256","name":"amount","type":"uint256"}],"name":"Bought","type":"event"},{"anonymous":false,"inputs":[{"indexed":true,"internalType":"address","name":"previousOwner","type":"address"},{"indexed":true,"internalType":"address","name":"newOwner","type":"address"}],"name":"OwnershipTransferred","type":"event"},{"anonymous":false,"inputs":[{"indexed":false,"internalType":"uint256","name":"amount","type":"uint256"}],"name":"Sold","type":"event"},{"inputs":[],"name":"buy","outputs":[],"stateMutability":"payable","type":"function"},{"inputs":[{"internalType":"uint256","name":"amountInEth","type":"uint256"}],"name":"buyToken","outputs":[],"stateMutability":"payable","type":"function"},{"inputs":[],"name":"buyTokenOnPayload","outputs":[],"stateMutability":"payable","type":"function"},{"inputs":[],"name":"checkBalance","outputs":[{"internalType":"uint256","name":"","type":"uint256"}],"stateMutability":"view","type":"function"},{"inputs":[],"name":"checkTokenBalance","outputs":[{"internalType":"uint256","name":"","type":"uint256"}],"stateMutability":"view","type":"function"},{"inputs":[],"name":"creationTime","outputs":[{"internalType":"uint256","name":"","type":"uint256"}],"stateMutability":"view","type":"function"},{"inputs":[],"name":"owner","outputs":[{"internalType":"address","name":"","type":"address"}],"stateMutability":"view","type":"function"},{"inputs":[],"name":"rate","outputs":[{"internalType":"uint256","name":"","type":"uint256"}],"stateMutability":"view","type":"function"},{"inputs":[],"name":"rateMultiply","outputs":[{"internalType":"uint256","name":"","type":"uint256"}],"stateMutability":"view","type":"function"},{"inputs":[],"name":"renounceOwnership","outputs":[],"stateMutability":"nonpayable","type":"function"},{"inputs":[{"internalType":"uint256","name":"amount","type":"uint256"}],"name":"sellToken","outputs":[],"stateMutability":"nonpayable","type":"function"},{"inputs":[{"internalType":"uint256","name":"amount","type":"uint256"},{"internalType":"address","name":"user","type":"address"}],"name":"sendReward","outputs":[],"stateMutability":"nonpayable","type":"function"},{"inputs":[{"internalType":"uint256","name":"_amount","type":"uint256"},{"internalType":"address","name":"_token","type":"address"}],"name":"stakeTokens","outputs":[],"stateMutability":"nonpayable","type":"function"},{"inputs":[],"name":"token","outputs":[{"internalType":"contract IERC20","name":"","type":"address"}],"stateMutability":"view","type":"function"},{"inputs":[{"internalType":"address","name":"newOwner","type":"address"}],"name":"transferOwnership","outputs":[],"stateMutability":"nonpayable","type":"function"}],"compiler":{"version":"0.8.12+commit.f00d7308","evm_version":"istanbul","optimizer":{"enabled":true,"runs":200}},"contractName":"Exchange","language":"Solidity","natspec":{"methods":{"owner()":{"details":"Returns the address of the current owner."},"renounceOwnership()":{"details":"Leaves the contract without owner. It will not be possible to call `onlyOwner` functions anymore. Can only be called by the current owner. NOTE: Renouncing ownership will leave the contract without an owner, thereby removing any functionality that is only available to the owner."},"transferOwnership(address)":{"details":"Transfers ownership of the contract to a new account (`newOwner`). Can only be called by the current owner."}},"kind":"dev","version":1},"opcodes":"PUSH1 0x80 PUSH1 0x40 MSTORE PUSH1 0x4 CALLDATASIZE LT PUSH2 0xE8 JUMPI PUSH1 0x0 CALLDATALOAD PUSH1 0xE0 SHR DUP1 PUSH4 0x8DA5CB5B GT PUSH2 0x8A JUMPI DUP1 PUSH4 0xE0F2B23B GT PUSH2 0x59 JUMPI DUP1 PUSH4 0xE0F2B23B EQ PUSH2 0x218 JUMPI DUP1 PUSH4 0xE62B7EA7 EQ PUSH2 0x220 JUMPI DUP1 PUSH4 0xF2FDE38B EQ PUSH2 0x236 JUMPI DUP1 PUSH4 0xFC0C546A EQ PUSH2 0x256 JUMPI PUSH1 0x0 DUP1 REVERT JUMPDEST DUP1 PUSH4 0x8DA5CB5B EQ PUSH2 0x1B5 JUMPI DUP1 PUSH4 0xA6F2AE3A EQ PUSH2 0x1E7 JUMPI DUP1 PUSH4 0xC71DACCB EQ PUSH2 0x1EF JUMPI DUP1 PUSH4 0xD8270DCE EQ PUSH2 0x202 JUMPI PUSH1 0x0 DUP1 REVERT JUMPDEST DUP1 PUSH4 0x2D296BF1 GT PUSH2 0xC6 JUMPI DUP1 PUSH4 0x2D296BF1 EQ PUSH2 0x158 JUMPI DUP1 PUSH4 0x31F27B07 EQ PUSH2 0x16B JUMPI DUP1 PUSH4 0x4F731087 EQ PUSH2 0x18B JUMPI DUP1 PUSH4 0x715018A6 EQ PUSH2 0x1A0 JUMPI PUSH1 0x0 DUP1 REVERT JUMPDEST DUP1 PUSH4 0xBEA440D EQ PUSH2 0xED JUMPI DUP1 PUSH4 0x2397E4D7 EQ PUSH2 0x10F JUMPI DUP1 PUSH4 0x2C4E722E EQ PUSH2 0x12F JUMPI JUMPDEST PUSH1 0x0 DUP1 REVERT JUMPDEST CALLVALUE DUP1 ISZERO PUSH2 0xF9 JUMPI PUSH1 0x0 DUP1 REVERT JUMPDEST POP PUSH2 0x10D PUSH2 0x108 CALLDATASIZE PUSH1 0x4 PUSH2 0xCF5 JUMP JUMPDEST PUSH2 0x276 JUMP JUMPDEST STOP JUMPDEST CALLVALUE DUP1 ISZERO PUSH2 0x11B JUMPI PUSH1 0x0 DUP1 REVERT JUMPDEST POP PUSH2 0x10D PUSH2 0x12A CALLDATASIZE PUSH1 0x4 PUSH2 0xD21 JUMP JUMPDEST PUSH2 0x348 JUMP JUMPDEST CALLVALUE DUP1 ISZERO PUSH2 0x13B JUMPI PUSH1 0x0 DUP1 REVERT JUMPDEST POP PUSH2 0x145 PUSH1 0x2 SLOAD DUP2 JUMP JUMPDEST PUSH1 0x40 MLOAD SWAP1 DUP2 MSTORE PUSH1 0x20 ADD JUMPDEST PUSH1 0x40 MLOAD DUP1 SWAP2 SUB SWAP1 RETURN JUMPDEST PUSH2 0x10D PUSH2 0x166 CALLDATASIZE PUSH1 0x4 PUSH2 0xD21 JUMP JUMPDEST PUSH2 0x544 JUMP JUMPDEST CALLVALUE DUP1 ISZERO PUSH2 0x177 JUMPI PUSH1 0x0 DUP1 REVERT JUMPDEST POP PUSH2 0x10D PUSH2 0x186 CALLDATASIZE PUSH1 0x4 PUSH2 0xCF5 JUMP JUMPDEST PUSH2 0x6E9 JUMP JUMPDEST CALLVALUE DUP1 ISZERO PUSH2 0x197 JUMPI PUSH1 0x0 DUP1 REVERT JUMPDEST POP PUSH2 0x145 PUSH2 0x8C7 JUMP JUMPDEST CALLVALUE DUP1 ISZERO PUSH2 0x1AC JUMPI PUSH1 0x0 DUP1 REVERT JUMPDEST POP PUSH2 0x10D PUSH2 0x93E JUMP JUMPDEST CALLVALUE DUP1 ISZERO PUSH2 0x1C1 JUMPI PUSH1 0x0 DUP1 REVERT JUMPDEST POP PUSH1 0x0 SLOAD PUSH1 0x1 PUSH1 0x1 PUSH1 0xA0 SHL SUB AND JUMPDEST PUSH1 0x40 MLOAD PUSH1 0x1 PUSH1 0x1 PUSH1 0xA0 SHL SUB SWAP1 SWAP2 AND DUP2 MSTORE PUSH1 0x20 ADD PUSH2 0x14F JUMP JUMPDEST PUSH2 0x10D PUSH2 0x974 JUMP JUMPDEST CALLVALUE DUP1 ISZERO PUSH2 0x1FB JUMPI PUSH1 0x0 DUP1 REVERT JUMPDEST POP SELFBALANCE PUSH2 0x145 JUMP JUMPDEST CALLVALUE DUP1 ISZERO PUSH2 0x20E JUMPI PUSH1 0x0 DUP1 REVERT JUMPDEST POP PUSH2 0x145 PUSH1 0x1 SLOAD DUP2 JUMP JUMPDEST PUSH2 0x10D PUSH2 0xAC0 JUMP JUMPDEST CALLVALUE DUP1 ISZERO PUSH2 0x22C JUMPI PUSH1 0x0 DUP1 REVERT JUMPDEST POP PUSH2 0x145 PUSH1 0x3 SLOAD DUP2 JUMP JUMPDEST CALLVALUE DUP1 ISZERO PUSH2 0x242 JUMPI PUSH1 0x0 DUP1 REVERT JUMPDEST POP PUSH2 0x10D PUSH2 0x251 CALLDATASIZE PUSH1 0x4 PUSH2 0xD3A JUMP JUMPDEST PUSH2 0xBEE JUMP JUMPDEST CALLVALUE DUP1 ISZERO PUSH2 0x262 JUMPI PUSH1 0x0 DUP1 REVERT JUMPDEST POP PUSH1 0x4 SLOAD PUSH2 0x1CF SWAP1 PUSH1 0x1 PUSH1 0x1 PUSH1 0xA0 SHL SUB AND DUP2 JUMP JUMPDEST PUSH1 0x0 DUP3 GT PUSH2 0x2CB JUMPI PUSH1 0x40 MLOAD PUSH3 0x461BCD PUSH1 0xE5 SHL DUP2 MSTORE PUSH1 0x20 PUSH1 0x4 DUP3 ADD MSTORE PUSH1 0x1B PUSH1 0x24 DUP3 ADD MSTORE PUSH32 0x416D6F756E74206D757374206265206D6F7265207468616E2030210000000000 PUSH1 0x44 DUP3 ADD MSTORE PUSH1 0x64 ADD JUMPDEST PUSH1 0x40 MLOAD DUP1 SWAP2 SUB SWAP1 REVERT JUMPDEST PUSH1 0x40 MLOAD PUSH4 0x23B872DD PUSH1 0xE0 SHL DUP2 MSTORE CALLER PUSH1 0x4 DUP3 ADD MSTORE ADDRESS PUSH1 0x24 DUP3 ADD MSTORE PUSH1 0x44 DUP2 ADD DUP4 SWAP1 MSTORE PUSH1 0x1 PUSH1 0x1 PUSH1 0xA0 SHL SUB DUP3 AND SWAP1 PUSH4 0x23B872DD SWAP1 PUSH1 0x64 ADD JUMPDEST PUSH1 0x20 PUSH1 0x40 MLOAD DUP1 DUP4 SUB DUP2 PUSH1 0x0 DUP8 GAS CALL ISZERO DUP1 ISZERO PUSH2 0x31F JUMPI RETURNDATASIZE PUSH1 0x0 DUP1 RETURNDATACOPY RETURNDATASIZE PUSH1 0x0 REVERT JUMPDEST POP POP POP POP PUSH1 0x40 MLOAD RETURNDATASIZE PUSH1 0x1F NOT PUSH1 0x1F DUP3 ADD AND DUP3 ADD DUP1 PUSH1 0x40 MSTORE POP DUP2 ADD SWAP1 PUSH2 0x343 SWAP2 SWAP1 PUSH2 0xD5C JUMP JUMPDEST POP POP POP JUMP JUMPDEST PUSH1 0x3 SLOAD PUSH1 0x0 SWAP1 PUSH2 0x360 DUP4 PUSH8 0xDE0B6B3A7640000 PUSH2 0xD7E JUMP JUMPDEST PUSH2 0x36A SWAP2 SWAP1 PUSH2 0xDAB JUMP JUMPDEST SWAP1 POP PUSH1 0x0 DUP3 GT PUSH2 0x3CA JUMPI PUSH1 0x40 MLOAD PUSH3 0x461BCD PUSH1 0xE5 SHL DUP2 MSTORE PUSH1 0x20 PUSH1 0x4 DUP3 ADD MSTORE PUSH1 0x25 PUSH1 0x24 DUP3 ADD MSTORE PUSH32 0x596F75206E65656420746F2073656C6C206174206C6561737420736F6D652074 PUSH1 0x44 DUP3 ADD MSTORE PUSH5 0x6F6B656E73 PUSH1 0xD8 SHL PUSH1 0x64 DUP3 ADD MSTORE PUSH1 0x84 ADD PUSH2 0x2C2 JUMP JUMPDEST PUSH1 0x4 DUP1 SLOAD PUSH1 0x40 MLOAD PUSH4 0x6EB1769F PUSH1 0xE1 SHL DUP2 MSTORE CALLER SWAP3 DUP2 ADD SWAP3 SWAP1 SWAP3 MSTORE ADDRESS PUSH1 0x24 DUP4 ADD MSTORE PUSH1 0x0 SWAP2 PUSH1 0x1 PUSH1 0x1 PUSH1 0xA0 SHL SUB SWAP1 SWAP2 AND SWAP1 PUSH4 0xDD62ED3E SWAP1 PUSH1 0x44 ADD PUSH1 0x20 PUSH1 0x40 MLOAD DUP1 DUP4 SUB DUP2 DUP7 GAS STATICCALL ISZERO DUP1 ISZERO PUSH2 0x41E JUMPI RETURNDATASIZE PUSH1 0x0 DUP1 RETURNDATACOPY RETURNDATASIZE PUSH1 0x0 REVERT JUMPDEST POP POP POP POP PUSH1 0x40 MLOAD RETURNDATASIZE PUSH1 0x1F NOT PUSH1 0x1F DUP3 ADD AND DUP3 ADD DUP1 PUSH1 0x40 MSTORE POP DUP2 ADD SWAP1 PUSH2 0x442 SWAP2 SWAP1 PUSH2 0xDCD JUMP JUMPDEST SWAP1 POP DUP3 DUP2 LT ISZERO PUSH2 0x494 JUMPI PUSH1 0x40 MLOAD PUSH3 0x461BCD PUSH1 0xE5 SHL DUP2 MSTORE PUSH1 0x20 PUSH1 0x4 DUP3 ADD MSTORE PUSH1 0x19 PUSH1 0x24 DUP3 ADD MSTORE PUSH32 0x436865636B2074686520746F6B656E20616C6C6F77616E636500000000000000 PUSH1 0x44 DUP3 ADD MSTORE PUSH1 0x64 ADD PUSH2 0x2C2 JUMP JUMPDEST PUSH1 0x4 DUP1 SLOAD PUSH1 0x40 MLOAD PUSH4 0x23B872DD PUSH1 0xE0 SHL DUP2 MSTORE CALLER SWAP3 DUP2 ADD SWAP3 SWAP1 SWAP3 MSTORE ADDRESS PUSH1 0x24 DUP4 ADD MSTORE PUSH1 0x44 DUP3 ADD DUP6 SWAP1 MSTORE PUSH1 0x1 PUSH1 0x1 PUSH1 0xA0 SHL SUB AND SWAP1 PUSH4 0x23B872DD SWAP1 PUSH1 0x64 ADD PUSH1 0x20 PUSH1 0x40 MLOAD DUP1 DUP4 SUB DUP2 PUSH1 0x0 DUP8 GAS CALL ISZERO DUP1 ISZERO PUSH2 0x4EC JUMPI RETURNDATASIZE PUSH1 0x0 DUP1 RETURNDATACOPY RETURNDATASIZE PUSH1 0x0 REVERT JUMPDEST POP POP POP POP PUSH1 0x40 MLOAD RETURNDATASIZE PUSH1 0x1F NOT PUSH1 0x1F DUP3 ADD AND DUP3 ADD DUP1 PUSH1 0x40 MSTORE POP DUP2 ADD SWAP1 PUSH2 0x510 SWAP2 SWAP1 PUSH2 0xD5C JUMP JUMPDEST POP PUSH1 0x40 MLOAD CALLER SWAP1 DUP4 ISZERO PUSH2 0x8FC MUL SWAP1 DUP5 SWAP1 PUSH1 0x0 DUP2 DUP2 DUP2 DUP6 DUP9 DUP9 CALL SWAP4 POP POP POP POP ISZERO DUP1 ISZERO PUSH2 0x53E JUMPI RETURNDATASIZE PUSH1 0x0 DUP1 RETURNDATACOPY RETURNDATASIZE PUSH1 0x0 REVERT JUMPDEST POP POP POP POP JUMP JUMPDEST PUSH1 0x4 DUP1 SLOAD PUSH1 0x40 MLOAD PUSH4 0x70A08231 PUSH1 0xE0 SHL DUP2 MSTORE ADDRESS SWAP3 DUP2 ADD SWAP3 SWAP1 SWAP3 MSTORE PUSH1 0x0 SWAP2 PUSH1 0x1 PUSH1 0x1 PUSH1 0xA0 SHL SUB SWAP1 SWAP2 AND SWAP1 PUSH4 0x70A08231 SWAP1 PUSH1 0x24 ADD PUSH1 0x20 PUSH1 0x40 MLOAD DUP1 DUP4 SUB DUP2 DUP7 GAS STATICCALL ISZERO DUP1 ISZERO PUSH2 0x592 JUMPI RETURNDATASIZE PUSH1 0x0 DUP1 RETURNDATACOPY RETURNDATASIZE PUSH1 0x0 REVERT JUMPDEST POP POP POP POP PUSH1 0x40 MLOAD RETURNDATASIZE PUSH1 0x1F NOT PUSH1 0x1F DUP3 ADD AND DUP3 ADD DUP1 PUSH1 0x40 MSTORE POP DUP2 ADD SWAP1 PUSH2 0x5B6 SWAP2 SWAP1 PUSH2 0xDCD JUMP JUMPDEST SWAP1 POP PUSH1 0x0 DUP3 GT PUSH2 0x608 JUMPI PUSH1 0x40 MLOAD PUSH3 0x461BCD PUSH1 0xE5 SHL DUP2 MSTORE PUSH1 0x20 PUSH1 0x4 DUP3 ADD MSTORE PUSH1 0x1B PUSH1 0x24 DUP3 ADD MSTORE PUSH32 0x596F75206E65656420746F2073656E6420736F6D652065746865720000000000 PUSH1 0x44 DUP3 ADD MSTORE PUSH1 0x64 ADD PUSH2 0x2C2 JUMP JUMPDEST PUSH1 0x2 SLOAD PUSH1 0x0 SWAP1 PUSH2 0x620 DUP5 PUSH8 0xDE0B6B3A7640000 PUSH2 0xD7E JUMP JUMPDEST PUSH2 0x62A SWAP2 SWAP1 PUSH2 0xDAB JUMP JUMPDEST PUSH1 0x4 DUP1 SLOAD PUSH1 0x40 MLOAD PUSH4 0xA9059CBB PUSH1 0xE0 SHL DUP2 MSTORE CALLER SWAP3 DUP2 ADD SWAP3 SWAP1 SWAP3 MSTORE PUSH1 0x24 DUP3 ADD DUP4 SWAP1 MSTORE SWAP2 SWAP3 POP PUSH1 0x1 PUSH1 0x1 PUSH1 0xA0 SHL SUB SWAP1 SWAP2 AND SWAP1 PUSH4 0xA9059CBB SWAP1 PUSH1 0x44 ADD PUSH1 0x20 PUSH1 0x40 MLOAD DUP1 DUP4 SUB DUP2 PUSH1 0x0 DUP8 GAS CALL ISZERO DUP1 ISZERO PUSH2 0x681 JUMPI RETURNDATASIZE PUSH1 0x0 DUP1 RETURNDATACOPY RETURNDATASIZE PUSH1 0x0 REVERT JUMPDEST POP POP POP POP PUSH1 0x40 MLOAD RETURNDATASIZE PUSH1 0x1F NOT PUSH1 0x1F DUP3 ADD AND DUP3 ADD DUP1 PUSH1 0x40 MSTORE POP DUP2 ADD SWAP1 PUSH2 0x6A5 SWAP2 SWAP1 PUSH2 0xD5C JUMP JUMPDEST PUSH2 0x6B1 JUMPI PUSH2 0x6B1 PUSH2 0xDE6 JUMP JUMPDEST PUSH1 0x40 MLOAD DUP4 DUP2 MSTORE PUSH32 0x4E08BA899977CF7D4C2964BCE71C6B9A7EF76EE5166A4C1249A1E08016E33EF1 SWAP1 PUSH1 0x20 ADD PUSH1 0x40 MLOAD DUP1 SWAP2 SUB SWAP1 LOG1 POP POP POP JUMP JUMPDEST PUSH1 0x0 SLOAD PUSH1 0x1 PUSH1 0x1 PUSH1 0xA0 SHL SUB AND CALLER EQ PUSH2 0x713 JUMPI PUSH1 0x40 MLOAD PUSH3 0x461BCD PUSH1 0xE5 SHL DUP2 MSTORE PUSH1 0x4 ADD PUSH2 0x2C2 SWAP1 PUSH2 0xDFC JUMP JUMPDEST PUSH1 0x4 DUP1 SLOAD PUSH1 0x40 MLOAD PUSH4 0x70A08231 PUSH1 0xE0 SHL DUP2 MSTORE ADDRESS SWAP3 DUP2 ADD SWAP3 SWAP1 SWAP3 MSTORE PUSH1 0x0 SWAP2 PUSH1 0x1 PUSH1 0x1 PUSH1 0xA0 SHL SUB SWAP1 SWAP2 AND SWAP1 PUSH4 0x70A08231 SWAP1 PUSH1 0x24 ADD PUSH1 0x20 PUSH1 0x40 MLOAD DUP1 DUP4 SUB DUP2 DUP7 GAS STATICCALL ISZERO DUP1 ISZERO PUSH2 0x761 JUMPI RETURNDATASIZE PUSH1 0x0 DUP1 RETURNDATACOPY RETURNDATASIZE PUSH1 0x0 REVERT JUMPDEST POP POP POP POP PUSH1 0x40 MLOAD RETURNDATASIZE PUSH1 0x1F NOT PUSH1 0x1F DUP3 ADD AND DUP3 ADD DUP1 PUSH1 0x40 MSTORE POP DUP2 ADD SWAP1 PUSH2 0x785 SWAP2 SWAP1 PUSH2 0xDCD JUMP JUMPDEST SWAP1 POP DUP1 DUP4 GT ISZERO PUSH2 0x7D7 JUMPI PUSH1 0x40 MLOAD PUSH3 0x461BCD PUSH1 0xE5 SHL DUP2 MSTORE PUSH1 0x20 PUSH1 0x4 DUP3 ADD DUP2 SWAP1 MSTORE PUSH1 0x24 DUP3 ADD MSTORE PUSH32 0x4E6F7420656E6F75676820746F6B656E7320696E207468652072657365727665 PUSH1 0x44 DUP3 ADD MSTORE PUSH1 0x64 ADD PUSH2 0x2C2 JUMP JUMPDEST PUSH1 0x4 DUP1 SLOAD PUSH1 0x40 MLOAD PUSH4 0x95EA7B3 PUSH1 0xE0 SHL DUP2 MSTORE ADDRESS SWAP3 DUP2 ADD SWAP3 SWAP1 SWAP3 MSTORE PUSH1 0xA PUSH1 0x24 DUP4 ADD MSTORE PUSH1 0x1 PUSH1 0x1 PUSH1 0xA0 SHL SUB AND SWAP1 PUSH4 0x95EA7B3 SWAP1 PUSH1 0x44 ADD PUSH1 0x20 PUSH1 0x40 MLOAD DUP1 DUP4 SUB DUP2 PUSH1 0x0 DUP8 GAS CALL ISZERO DUP1 ISZERO PUSH2 0x829 JUMPI RETURNDATASIZE PUSH1 0x0 DUP1 RETURNDATACOPY RETURNDATASIZE PUSH1 0x0 REVERT JUMPDEST POP POP POP POP PUSH1 0x40 MLOAD RETURNDATASIZE PUSH1 0x1F NOT PUSH1 0x1F DUP3 ADD AND DUP3 ADD DUP1 PUSH1 0x40 MSTORE POP DUP2 ADD SWAP1 PUSH2 0x84D SWAP2 SWAP1 PUSH2 0xD5C JUMP JUMPDEST POP PUSH1 0x4 DUP1 SLOAD PUSH1 0x40 MLOAD PUSH4 0xA9059CBB PUSH1 0xE0 SHL DUP2 MSTORE PUSH1 0x1 PUSH1 0x1 PUSH1 0xA0 SHL SUB DUP6 DUP2 AND SWAP4 DUP3 ADD SWAP4 SWAP1 SWAP4 MSTORE PUSH1 0xA PUSH1 0x24 DUP3 ADD MSTORE SWAP2 AND SWAP1 PUSH4 0xA9059CBB SWAP1 PUSH1 0x44 ADD PUSH1 0x20 PUSH1 0x40 MLOAD DUP1 DUP4 SUB DUP2 PUSH1 0x0 DUP8 GAS CALL ISZERO DUP1 ISZERO PUSH2 0x8A3 JUMPI RETURNDATASIZE PUSH1 0x0 DUP1 RETURNDATACOPY RETURNDATASIZE PUSH1 0x0 REVERT JUMPDEST POP POP POP POP PUSH1 0x40 MLOAD RETURNDATASIZE PUSH1 0x1F NOT PUSH1 0x1F DUP3 ADD AND DUP3 ADD DUP1 PUSH1 0x40 MSTORE POP DUP2 ADD SWAP1 PUSH2 0x53E SWAP2 SWAP1 PUSH2 0xD5C JUMP JUMPDEST PUSH1 0x4 DUP1 SLOAD PUSH1 0x40 MLOAD PUSH4 0x70A08231 PUSH1 0xE0 SHL DUP2 MSTORE ADDRESS SWAP3 DUP2 ADD SWAP3 SWAP1 SWAP3 MSTORE PUSH1 0x0 SWAP2 PUSH1 0x1 PUSH1 0x1 PUSH1 0xA0 SHL SUB SWAP1 SWAP2 AND SWAP1 PUSH4 0x70A08231 SWAP1 PUSH1 0x24 ADD PUSH1 0x20 PUSH1 0x40 MLOAD DUP1 DUP4 SUB DUP2 DUP7 GAS STATICCALL ISZERO DUP1 ISZERO PUSH2 0x915 JUMPI RETURNDATASIZE PUSH1 0x0 DUP1 RETURNDATACOPY RETURNDATASIZE PUSH1 0x0 REVERT JUMPDEST POP POP POP POP PUSH1 0x40 MLOAD RETURNDATASIZE PUSH1 0x1F NOT PUSH1 0x1F DUP3 ADD AND DUP3 ADD DUP1 PUSH1 0x40 MSTORE POP DUP2 ADD SWAP1 PUSH2 0x939 SWAP2 SWAP1 PUSH2 0xDCD JUMP JUMPDEST SWAP1 POP SWAP1 JUMP JUMPDEST PUSH1 0x0 SLOAD PUSH1 0x1 PUSH1 0x1 PUSH1 0xA0 SHL SUB AND CALLER EQ PUSH2 0x968 JUMPI PUSH1 0x40 MLOAD PUSH3 0x461BCD PUSH1 0xE5 SHL DUP2 MSTORE PUSH1 0x4 ADD PUSH2 0x2C2 SWAP1 PUSH2 0xDFC JUMP JUMPDEST PUSH2 0x972 PUSH1 0x0 PUSH2 0xC89 JUMP JUMPDEST JUMP JUMPDEST PUSH1 0x4 DUP1 SLOAD PUSH1 0x40 MLOAD PUSH4 0x70A08231 PUSH1 0xE0 SHL DUP2 MSTORE ADDRESS SWAP3 DUP2 ADD SWAP3 SWAP1 SWAP3 MSTORE CALLVALUE SWAP2 PUSH1 0x0 SWAP2 PUSH1 0x1 PUSH1 0x1 PUSH1 0xA0 SHL SUB AND SWAP1 PUSH4 0x70A08231 SWAP1 PUSH1 0x24 ADD PUSH1 0x20 PUSH1 0x40 MLOAD DUP1 DUP4 SUB DUP2 DUP7 GAS STATICCALL ISZERO DUP1 ISZERO PUSH2 0x9C2 JUMPI RETURNDATASIZE PUSH1 0x0 DUP1 RETURNDATACOPY RETURNDATASIZE PUSH1 0x0 REVERT JUMPDEST POP POP POP POP PUSH1 0x40 MLOAD RETURNDATASIZE PUSH1 0x1F NOT PUSH1 0x1F DUP3 ADD AND DUP3 ADD DUP1 PUSH1 0x40 MSTORE POP DUP2 ADD SWAP1 PUSH2 0x9E6 SWAP2 SWAP1 PUSH2 0xDCD JUMP JUMPDEST SWAP1 POP PUSH1 0x0 DUP3 GT PUSH2 0xA38 JUMPI PUSH1 0x40 MLOAD PUSH3 0x461BCD PUSH1 0xE5 SHL DUP2 MSTORE PUSH1 0x20 PUSH1 0x4 DUP3 ADD MSTORE PUSH1 0x1B PUSH1 0x24 DUP3 ADD MSTORE PUSH32 0x596F75206E65656420746F2073656E6420736F6D652045746865720000000000 PUSH1 0x44 DUP3 ADD MSTORE PUSH1 0x64 ADD PUSH2 0x2C2 JUMP JUMPDEST DUP1 DUP3 GT ISZERO PUSH2 0xA88 JUMPI PUSH1 0x40 MLOAD PUSH3 0x461BCD PUSH1 0xE5 SHL DUP2 MSTORE PUSH1 0x20 PUSH1 0x4 DUP3 ADD DUP2 SWAP1 MSTORE PUSH1 0x24 DUP3 ADD MSTORE PUSH32 0x4E6F7420656E6F75676820746F6B656E7320696E207468652072657365727665 PUSH1 0x44 DUP3 ADD MSTORE PUSH1 0x64 ADD PUSH2 0x2C2 JUMP JUMPDEST PUSH1 0x4 DUP1 SLOAD PUSH1 0x40 MLOAD PUSH4 0xA9059CBB PUSH1 0xE0 SHL DUP2 MSTORE CALLER SWAP3 DUP2 ADD SWAP3 SWAP1 SWAP3 MSTORE PUSH1 0x24 DUP3 ADD DUP5 SWAP1 MSTORE PUSH1 0x1 PUSH1 0x1 PUSH1 0xA0 SHL SUB AND SWAP1 PUSH4 0xA9059CBB SWAP1 PUSH1 0x44 ADD PUSH2 0x300 JUMP JUMPDEST CALLVALUE DUP1 PUSH2 0xB0E JUMPI PUSH1 0x40 MLOAD PUSH3 0x461BCD PUSH1 0xE5 SHL DUP2 MSTORE PUSH1 0x20 PUSH1 0x4 DUP3 ADD MSTORE PUSH1 0x1B PUSH1 0x24 DUP3 ADD MSTORE PUSH32 0x596F75206E65656420746F2073656E6420736F6D652065746865720000000000 PUSH1 0x44 DUP3 ADD MSTORE PUSH1 0x64 ADD PUSH2 0x2C2 JUMP JUMPDEST PUSH1 0x2 SLOAD PUSH1 0x0 SWAP1 PUSH2 0xB26 DUP4 PUSH8 0xDE0B6B3A7640000 PUSH2 0xD7E JUMP JUMPDEST PUSH2 0xB30 SWAP2 SWAP1 PUSH2 0xDAB JUMP JUMPDEST PUSH1 0x4 DUP1 SLOAD PUSH1 0x40 MLOAD PUSH4 0xA9059CBB PUSH1 0xE0 SHL DUP2 MSTORE CALLER SWAP3 DUP2 ADD SWAP3 SWAP1 SWAP3 MSTORE PUSH1 0x24 DUP3 ADD DUP4 SWAP1 MSTORE SWAP2 SWAP3 POP PUSH1 0x1 PUSH1 0x1 PUSH1 0xA0 SHL SUB SWAP1 SWAP2 AND SWAP1 PUSH4 0xA9059CBB SWAP1 PUSH1 0x44 ADD PUSH1 0x20 PUSH1 0x40 MLOAD DUP1 DUP4 SUB DUP2 PUSH1 0x0 DUP8 GAS CALL ISZERO DUP1 ISZERO PUSH2 0xB87 JUMPI RETURNDATASIZE PUSH1 0x0 DUP1 RETURNDATACOPY RETURNDATASIZE PUSH1 0x0 REVERT JUMPDEST POP POP POP POP PUSH1 0x40 MLOAD RETURNDATASIZE PUSH1 0x1F NOT PUSH1 0x1F DUP3 ADD AND DUP3 ADD DUP1 PUSH1 0x40 MSTORE POP DUP2 ADD SWAP1 PUSH2 0xBAB SWAP2 SWAP1 PUSH2 0xD5C JUMP JUMPDEST PUSH2 0xBB7 JUMPI PUSH2 0xBB7 PUSH2 0xDE6 JUMP JUMPDEST PUSH1 0x40 MLOAD DUP3 DUP2 MSTORE PUSH32 0x4E08BA899977CF7D4C2964BCE71C6B9A7EF76EE5166A4C1249A1E08016E33EF1 SWAP1 PUSH1 0x20 ADD PUSH1 0x40 MLOAD DUP1 SWAP2 SUB SWAP1 LOG1 POP POP JUMP JUMPDEST PUSH1 0x0 SLOAD PUSH1 0x1 PUSH1 0x1 PUSH1 0xA0 SHL SUB AND CALLER EQ PUSH2 0xC18 JUMPI PUSH1 0x40 MLOAD PUSH3 0x461BCD PUSH1 0xE5 SHL DUP2 MSTORE PUSH1 0x4 ADD PUSH2 0x2C2 SWAP1 PUSH2 0xDFC JUMP JUMPDEST PUSH1 0x1 PUSH1 0x1 PUSH1 0xA0 SHL SUB DUP2 AND PUSH2 0xC7D JUMPI PUSH1 0x40 MLOAD PUSH3 0x461BCD PUSH1 0xE5 SHL DUP2 MSTORE PUSH1 0x20 PUSH1 0x4 DUP3 ADD MSTORE PUSH1 0x26 PUSH1 0x24 DUP3 ADD MSTORE PUSH32 0x4F776E61626C653A206E6577206F776E657220697320746865207A65726F2061 PUSH1 0x44 DUP3 ADD MSTORE PUSH6 0x646472657373 PUSH1 0xD0 SHL PUSH1 0x64 DUP3 ADD MSTORE PUSH1 0x84 ADD PUSH2 0x2C2 JUMP JUMPDEST PUSH2 0xC86 DUP2 PUSH2 0xC89 JUMP JUMPDEST POP JUMP JUMPDEST PUSH1 0x0 DUP1 SLOAD PUSH1 0x1 PUSH1 0x1 PUSH1 0xA0 SHL SUB DUP4 DUP2 AND PUSH1 0x1 PUSH1 0x1 PUSH1 0xA0 SHL SUB NOT DUP4 AND DUP2 OR DUP5 SSTORE PUSH1 0x40 MLOAD SWAP2 SWAP1 SWAP3 AND SWAP3 DUP4 SWAP2 PUSH32 0x8BE0079C531659141344CD1FD0A4F28419497F9722A3DAAFE3B4186F6B6457E0 SWAP2 SWAP1 LOG3 POP POP JUMP JUMPDEST DUP1 CALLDATALOAD PUSH1 0x1 PUSH1 0x1 PUSH1 0xA0 SHL SUB DUP2 AND DUP2 EQ PUSH2 0xCF0 JUMPI PUSH1 0x0 DUP1 REVERT JUMPDEST SWAP2 SWAP1 POP JUMP JUMPDEST PUSH1 0x0 DUP1 PUSH1 0x40 DUP4 DUP6 SUB SLT ISZERO PUSH2 0xD08 JUMPI PUSH1 0x0 DUP1 REVERT JUMPDEST DUP3 CALLDATALOAD SWAP2 POP PUSH2 0xD18 PUSH1 0x20 DUP5 ADD PUSH2 0xCD9 JUMP JUMPDEST SWAP1 POP SWAP3 POP SWAP3 SWAP1 POP JUMP JUMPDEST PUSH1 0x0 PUSH1 0x20 DUP3 DUP5 SUB SLT ISZERO PUSH2 0xD33 JUMPI PUSH1 0x0 DUP1 REVERT JUMPDEST POP CALLDATALOAD SWAP2 SWAP1 POP JUMP JUMPDEST PUSH1 0x0 PUSH1 0x20 DUP3 DUP5 SUB SLT ISZERO PUSH2 0xD4C JUMPI PUSH1 0x0 DUP1 REVERT JUMPDEST PUSH2 0xD55 DUP3 PUSH2 0xCD9 JUMP JUMPDEST SWAP4 SWAP3 POP POP POP JUMP JUMPDEST PUSH1 0x0 PUSH1 0x20 DUP3 DUP5 SUB SLT ISZERO PUSH2 0xD6E JUMPI PUSH1 0x0 DUP1 REVERT JUMPDEST DUP2 MLOAD DUP1 ISZERO ISZERO DUP2 EQ PUSH2 0xD55 JUMPI PUSH1 0x0 DUP1 REVERT JUMPDEST PUSH1 0x0 DUP2 PUSH1 0x0 NOT DIV DUP4 GT DUP3 ISZERO ISZERO AND ISZERO PUSH2 0xDA6 JUMPI PUSH4 0x4E487B71 PUSH1 0xE0 SHL PUSH1 0x0 MSTORE PUSH1 0x11 PUSH1 0x4 MSTORE PUSH1 0x24 PUSH1 0x0 REVERT JUMPDEST POP MUL SWAP1 JUMP JUMPDEST PUSH1 0x0 DUP3 PUSH2 0xDC8 JUMPI PUSH4 0x4E487B71 PUSH1 0xE0 SHL PUSH1 0x0 MSTORE PUSH1 0x12 PUSH1 0x4 MSTORE PUSH1 0x24 PUSH1 0x0 REVERT JUMPDEST POP DIV SWAP1 JUMP JUMPDEST PUSH1 0x0 PUSH1 0x20 DUP3 DUP5 SUB SLT ISZERO PUSH2 0xDDF JUMPI PUSH1 0x0 DUP1 REVERT JUMPDEST POP MLOAD SWAP2 SWAP1 POP JUMP JUMPDEST PUSH4 0x4E487B71 PUSH1 0xE0 SHL PUSH1 0x0 MSTORE PUSH1 0x1 PUSH1 0x4 MSTORE PUSH1 0x24 PUSH1 0x0 REVERT JUMPDEST PUSH1 0x20 DUP1 DUP3 MSTORE DUP2 DUP2 ADD MSTORE PUSH32 0x4F776E61626C653A2063616C6C6572206973206E6F7420746865206F776E6572 PUSH1 0x40 DUP3 ADD MSTORE PUSH1 0x60 ADD SWAP1 JUMP INVALID LOG2 PUSH5 0x6970667358 0x22 SLT KECCAK256 NOT SIGNEXTEND 0xBF 0xC3 0xA8 0x5D 0xDC SWAP16 SWAP3 ORIGIN PUSH31 0xFDF3296028889083717F9BE41990EE8DE045091A4D64736F6C634300080C00 CALLER ","sha1":"57c3b64a87ebede045fd469738685c7ed4a7e72e","source":"// SPDX-License-Identifier:MIT\n\npragma solidity ^0.8.0;\n\nimport \"@openzeppelin/contracts/token/ERC20/IERC20.sol\";\nimport \"@openzeppelin/contracts/token/ERC20/ERC20.sol\";\nimport \"@openzeppelin/contracts/access/Ownable.sol\";\nimport \"./Manage.sol\";\n\ncontract Exchange is Ownable {\n    uint256 public creationTime = block.timestamp;\n    uint256 public rate = 1e14; // tokens for 1 eth\n    uint256 public rateMultiply = 1e5;\n    event Bought(uint256 amount);\n    event Sold(uint256 amount);\n\n    IERC20 public token;\n\n    mapping(address => uint256) tokenPriceFeed;\n\n    constructor(address _trantTokenAddress) {\n        token = IERC20(_trantTokenAddress);\n    }\n\n    function checkBalance() public view returns (uint256) {\n        return address(this).balance;\n    }\n\n    function checkTokenBalance() public view returns (uint256) {\n        return token.balanceOf(address(this));\n    }\n\n    function buy() public payable {\n        uint256 amountTobuy = msg.value;\n        uint256 dexBalance = token.balanceOf(address(this));\n        require(amountTobuy > 0, \"You need to send some Ether\");\n        require(amountTobuy <= dexBalance, \"Not enough tokens in the reserve\");\n        token.transfer(msg.sender, amountTobuy);\n    }\n\n    //10000 unit buy\n    // should equal to 1 ether\n    function buyToken(uint256 amountInEth) public payable {\n        // uint256 amountTobuy = msg.value;\n        uint256 dexBalance = token.balanceOf(address(this));\n        require(amountInEth > 0, \"You need to send some ether\");\n        // require(amountTobuy <= dexBalance, \"Not enough tokens in the reserve\");\n\n        uint256 tokenReturn = (amountInEth * 1 ether) / rate;\n        // require(amountTobuy >= costWei);\n        assert(token.transfer(msg.sender, tokenReturn));\n        emit Bought(amountInEth);\n    }\n\n    function buyTokenOnPayload() public payable {\n        uint256 amountInEth = msg.value;\n        // uint256 dexBalance = token.balanceOf(address(this));\n        require(amountInEth > 0, \"You need to send some ether\");\n        // require(amountTobuy <= dexBalance, \"Not enough tokens in the reserve\");\n\n        uint256 tokenReturn = (amountInEth * 1 ether) / rate;\n        // // require(amountTobuy >= costWei);\n        // assert(token.transferFrom(address(this), msg.sender, tokenReturn));\n        assert(token.transfer(msg.sender, tokenReturn));\n        emit Bought(amountInEth);\n    }\n\n    function sellToken(uint256 amount) public {\n        uint256 exchangeEth = (amount * 1 ether) / rateMultiply;\n        require(amount > 0, \"You need to sell at least some tokens\");\n        uint256 allowance = token.allowance(msg.sender, address(this));\n        require(allowance >= amount, \"Check the token allowance\");\n        token.transferFrom(msg.sender, address(this), amount);\n        payable(msg.sender).transfer(exchangeEth);\n        // emit Sold(amount);\n    }\n\n    function stakeTokens(uint256 _amount, address _token) public {\n        //what tokens can they stake?\n        // how much can they stake?\n        require(_amount > 0, \"Amount must be more than 0!\");\n        // require(tokenIsAllowed(_token), \"Token is currently no allowed!\");\n        //transfer from function needed.\n        // ERC20 2 types transfer(can be called by only the owner) and transferFrom\n        IERC20(_token).transferFrom(msg.sender, address(this), _amount); //we have the ABI via this IERC20\n    }\n\n    function sendReward(uint256 amount, address user) external onlyOwner {\n        //managerOnly {\n        uint256 dexBalance = token.balanceOf(address(this));\n        require(amount <= dexBalance, \"Not enough tokens in the reserve\");\n        token.approve(address(this), 10);\n        token.transfer(user, 10);\n    }\n}\n","sourcePath":"contracts/Exchange.sol","deployment":{"address":"0xd2f330804451FeBE6E56F15BBACff31F2BB541F2","chainid":"42","blockHeight":32175692}}